{
  "contractName": "SolnSquareVerifier",
  "abi": [
    {
      "constant": true,
      "inputs": [
        {
          "name": "interfaceId",
          "type": "bytes4"
        }
      ],
      "name": "supportsInterface",
      "outputs": [
        {
          "name": "",
          "type": "bool"
        }
      ],
      "payable": false,
      "stateMutability": "view",
      "type": "function"
    },
    {
      "constant": true,
      "inputs": [],
      "name": "name",
      "outputs": [
        {
          "name": "",
          "type": "string"
        }
      ],
      "payable": false,
      "stateMutability": "view",
      "type": "function"
    },
    {
      "constant": true,
      "inputs": [
        {
          "name": "tokenId",
          "type": "uint256"
        }
      ],
      "name": "getApproved",
      "outputs": [
        {
          "name": "",
          "type": "address"
        }
      ],
      "payable": false,
      "stateMutability": "view",
      "type": "function"
    },
    {
      "constant": false,
      "inputs": [
        {
          "name": "to",
          "type": "address"
        },
        {
          "name": "tokenId",
          "type": "uint256"
        }
      ],
      "name": "approve",
      "outputs": [],
      "payable": false,
      "stateMutability": "nonpayable",
      "type": "function"
    },
    {
      "constant": false,
      "inputs": [
        {
          "name": "setpaused",
          "type": "bool"
        }
      ],
      "name": "setPaused",
      "outputs": [],
      "payable": false,
      "stateMutability": "nonpayable",
      "type": "function"
    },
    {
      "constant": true,
      "inputs": [],
      "name": "totalSupply",
      "outputs": [
        {
          "name": "",
          "type": "uint256"
        }
      ],
      "payable": false,
      "stateMutability": "view",
      "type": "function"
    },
    {
      "constant": true,
      "inputs": [
        {
          "name": "",
          "type": "bytes32"
        }
      ],
      "name": "Solutionssubmitted",
      "outputs": [
        {
          "name": "index",
          "type": "uint256"
        },
        {
          "name": "senderAddress",
          "type": "address"
        }
      ],
      "payable": false,
      "stateMutability": "view",
      "type": "function"
    },
    {
      "constant": false,
      "inputs": [
        {
          "name": "from",
          "type": "address"
        },
        {
          "name": "to",
          "type": "address"
        },
        {
          "name": "tokenId",
          "type": "uint256"
        }
      ],
      "name": "transferFrom",
      "outputs": [],
      "payable": false,
      "stateMutability": "nonpayable",
      "type": "function"
    },
    {
      "constant": false,
      "inputs": [
        {
          "name": "_myid",
          "type": "bytes32"
        },
        {
          "name": "_result",
          "type": "string"
        }
      ],
      "name": "__callback",
      "outputs": [],
      "payable": false,
      "stateMutability": "nonpayable",
      "type": "function"
    },
    {
      "constant": true,
      "inputs": [
        {
          "name": "owner",
          "type": "address"
        },
        {
          "name": "index",
          "type": "uint256"
        }
      ],
      "name": "tokenOfOwnerByIndex",
      "outputs": [
        {
          "name": "",
          "type": "uint256"
        }
      ],
      "payable": false,
      "stateMutability": "view",
      "type": "function"
    },
    {
      "constant": false,
      "inputs": [
        {
          "name": "_myid",
          "type": "bytes32"
        },
        {
          "name": "_result",
          "type": "string"
        },
        {
          "name": "_proof",
          "type": "bytes"
        }
      ],
      "name": "__callback",
      "outputs": [],
      "payable": false,
      "stateMutability": "nonpayable",
      "type": "function"
    },
    {
      "constant": false,
      "inputs": [
        {
          "name": "to",
          "type": "address"
        },
        {
          "name": "tokenId",
          "type": "uint256"
        }
      ],
      "name": "mint",
      "outputs": [
        {
          "name": "",
          "type": "bool"
        }
      ],
      "payable": false,
      "stateMutability": "nonpayable",
      "type": "function"
    },
    {
      "constant": false,
      "inputs": [
        {
          "name": "from",
          "type": "address"
        },
        {
          "name": "to",
          "type": "address"
        },
        {
          "name": "tokenId",
          "type": "uint256"
        }
      ],
      "name": "safeTransferFrom",
      "outputs": [],
      "payable": false,
      "stateMutability": "nonpayable",
      "type": "function"
    },
    {
      "constant": true,
      "inputs": [
        {
          "name": "index",
          "type": "uint256"
        }
      ],
      "name": "tokenByIndex",
      "outputs": [
        {
          "name": "",
          "type": "uint256"
        }
      ],
      "payable": false,
      "stateMutability": "view",
      "type": "function"
    },
    {
      "constant": true,
      "inputs": [
        {
          "name": "a",
          "type": "uint256[2]"
        },
        {
          "name": "b",
          "type": "uint256[2][2]"
        },
        {
          "name": "c",
          "type": "uint256[2]"
        },
        {
          "name": "input",
          "type": "uint256[2]"
        }
      ],
      "name": "verifyTx",
      "outputs": [
        {
          "name": "r",
          "type": "bool"
        }
      ],
      "payable": false,
      "stateMutability": "view",
      "type": "function"
    },
    {
      "constant": true,
      "inputs": [
        {
          "name": "tokenId",
          "type": "uint256"
        }
      ],
      "name": "ownerOf",
      "outputs": [
        {
          "name": "",
          "type": "address"
        }
      ],
      "payable": false,
      "stateMutability": "view",
      "type": "function"
    },
    {
      "constant": true,
      "inputs": [
        {
          "name": "owner",
          "type": "address"
        }
      ],
      "name": "balanceOf",
      "outputs": [
        {
          "name": "",
          "type": "uint256"
        }
      ],
      "payable": false,
      "stateMutability": "view",
      "type": "function"
    },
    {
      "constant": true,
      "inputs": [],
      "name": "getOwner",
      "outputs": [
        {
          "name": "",
          "type": "address"
        }
      ],
      "payable": false,
      "stateMutability": "view",
      "type": "function"
    },
    {
      "constant": true,
      "inputs": [],
      "name": "symbol",
      "outputs": [
        {
          "name": "",
          "type": "string"
        }
      ],
      "payable": false,
      "stateMutability": "view",
      "type": "function"
    },
    {
      "constant": false,
      "inputs": [
        {
          "name": "to",
          "type": "address"
        },
        {
          "name": "approved",
          "type": "bool"
        }
      ],
      "name": "setApprovalForAll",
      "outputs": [],
      "payable": false,
      "stateMutability": "nonpayable",
      "type": "function"
    },
    {
      "constant": true,
      "inputs": [],
      "name": "isPaused",
      "outputs": [
        {
          "name": "",
          "type": "bool"
        }
      ],
      "payable": false,
      "stateMutability": "view",
      "type": "function"
    },
    {
      "constant": true,
      "inputs": [
        {
          "name": "",
          "type": "uint256"
        }
      ],
      "name": "solutions",
      "outputs": [
        {
          "name": "index",
          "type": "uint256"
        },
        {
          "name": "senderAddress",
          "type": "address"
        }
      ],
      "payable": false,
      "stateMutability": "view",
      "type": "function"
    },
    {
      "constant": false,
      "inputs": [
        {
          "name": "from",
          "type": "address"
        },
        {
          "name": "to",
          "type": "address"
        },
        {
          "name": "tokenId",
          "type": "uint256"
        },
        {
          "name": "_data",
          "type": "bytes"
        }
      ],
      "name": "safeTransferFrom",
      "outputs": [],
      "payable": false,
      "stateMutability": "nonpayable",
      "type": "function"
    },
    {
      "constant": true,
      "inputs": [],
      "name": "getBaseTokenURI",
      "outputs": [
        {
          "name": "",
          "type": "string"
        }
      ],
      "payable": false,
      "stateMutability": "view",
      "type": "function"
    },
    {
      "constant": true,
      "inputs": [
        {
          "name": "tokenId",
          "type": "uint256"
        }
      ],
      "name": "tokenURI",
      "outputs": [
        {
          "name": "",
          "type": "string"
        }
      ],
      "payable": false,
      "stateMutability": "view",
      "type": "function"
    },
    {
      "constant": true,
      "inputs": [
        {
          "name": "owner",
          "type": "address"
        },
        {
          "name": "operator",
          "type": "address"
        }
      ],
      "name": "isApprovedForAll",
      "outputs": [
        {
          "name": "",
          "type": "bool"
        }
      ],
      "payable": false,
      "stateMutability": "view",
      "type": "function"
    },
    {
      "constant": false,
      "inputs": [
        {
          "name": "newOwner",
          "type": "address"
        }
      ],
      "name": "transferOwnership",
      "outputs": [],
      "payable": false,
      "stateMutability": "nonpayable",
      "type": "function"
    },
    {
      "anonymous": false,
      "inputs": [
        {
          "indexed": false,
          "name": "Solindex",
          "type": "uint256"
        },
        {
          "indexed": false,
          "name": "Solsender",
          "type": "address"
        }
      ],
      "name": "SolutionAdded",
      "type": "event"
    },
    {
      "anonymous": false,
      "inputs": [
        {
          "indexed": true,
          "name": "from",
          "type": "address"
        },
        {
          "indexed": true,
          "name": "to",
          "type": "address"
        },
        {
          "indexed": true,
          "name": "tokenId",
          "type": "uint256"
        }
      ],
      "name": "Transfer",
      "type": "event"
    },
    {
      "anonymous": false,
      "inputs": [
        {
          "indexed": true,
          "name": "owner",
          "type": "address"
        },
        {
          "indexed": true,
          "name": "approved",
          "type": "address"
        },
        {
          "indexed": true,
          "name": "tokenId",
          "type": "uint256"
        }
      ],
      "name": "Approval",
      "type": "event"
    },
    {
      "anonymous": false,
      "inputs": [
        {
          "indexed": true,
          "name": "owner",
          "type": "address"
        },
        {
          "indexed": true,
          "name": "operator",
          "type": "address"
        },
        {
          "indexed": false,
          "name": "approved",
          "type": "bool"
        }
      ],
      "name": "ApprovalForAll",
      "type": "event"
    },
    {
      "anonymous": false,
      "inputs": [
        {
          "indexed": false,
          "name": "trigger",
          "type": "address"
        }
      ],
      "name": "Paused",
      "type": "event"
    },
    {
      "anonymous": false,
      "inputs": [
        {
          "indexed": false,
          "name": "trigger",
          "type": "address"
        }
      ],
      "name": "Unpaused",
      "type": "event"
    },
    {
      "anonymous": false,
      "inputs": [
        {
          "indexed": false,
          "name": "newOwner",
          "type": "address"
        }
      ],
      "name": "changeOwner",
      "type": "event"
    },
    {
      "constant": false,
      "inputs": [
        {
          "name": "a",
          "type": "uint256[2]"
        },
        {
          "name": "b",
          "type": "uint256[2][2]"
        },
        {
          "name": "c",
          "type": "uint256[2]"
        },
        {
          "name": "input",
          "type": "uint256[2]"
        }
      ],
      "name": "add",
      "outputs": [],
      "payable": false,
      "stateMutability": "nonpayable",
      "type": "function"
    },
    {
      "constant": false,
      "inputs": [
        {
          "name": "a",
          "type": "uint256[2]"
        },
        {
          "name": "b",
          "type": "uint256[2][2]"
        },
        {
          "name": "c",
          "type": "uint256[2]"
        },
        {
          "name": "input",
          "type": "uint256[2]"
        },
        {
          "name": "tokenId",
          "type": "uint256"
        }
      ],
      "name": "mintVerified",
      "outputs": [],
      "payable": false,
      "stateMutability": "nonpayable",
      "type": "function"
    }
  ],
  "bytecode": "0x608060405260006013556040518060400160405280600881526020017f44696d746f6b656e0000000000000000000000000000000000000000000000008152506040518060400160405280600281526020017f44540000000000000000000000000000000000000000000000000000000000008152506040518060600160405280603f815260200162004b17603f9139336000806101000a81548173ffffffffffffffffffffffffffffffffffffffff021916908373ffffffffffffffffffffffffffffffffffffffff16021790555060008060146101000a81548160ff021916908315150217905550620001016301ffc9a760e01b6200019d60201b60201c565b620001196380ac58cd60e01b6200019d60201b60201c565b6200013163780e9d6360e01b6200019d60201b60201c565b82600f9080519060200190620001499291906200023f565b508160109080519060200190620001629291906200023f565b5080601190805190602001906200017b9291906200023f565b5062000194635b5e139f60e01b6200019d60201b60201c565b505050620002ee565b63ffffffff60e01b817bffffffffffffffffffffffffffffffffffffffffffffffffffffffff191614151515620001d357600080fd5b6001806000837bffffffffffffffffffffffffffffffffffffffffffffffffffffffff19167bffffffffffffffffffffffffffffffffffffffffffffffffffffffff1916815260200190815260200160002060006101000a81548160ff02191690831515021790555050565b828054600181600116156101000203166002900490600052602060002090601f016020900481019282601f106200028257805160ff1916838001178555620002b3565b82800160010185558215620002b3579182015b82811115620002b257825182559160200191906001019062000295565b5b509050620002c29190620002c6565b5090565b620002eb91905b80821115620002e7576000816000905550600101620002cd565b5090565b90565b61481980620002fe6000396000f3fe608060405234801561001057600080fd5b50600436106101cf5760003560e01c80635c92776911610104578063b187bd26116100a2578063bdc32be011610071578063bdc32be014611006578063c87b56dd14611089578063e985e9c514611130578063f2fde38b146111ac576101cf565b8063b187bd2614610d09578063b71698c714610d2b578063b841feec14610da0578063b88d4fde14610f01576101cf565b806370a08231116100de57806370a0823114610b94578063893d20e814610bec57806395d89b4114610c36578063a22cb46514610cb9576101cf565b80635c92776914610842578063621e9ec0146109ad5780636352211e14610b26576101cf565b806323b872dd1161017157806338bbfa501161014b57806338bbfa50146105d057806340c10f191461072c57806342842e0e146107925780634f6ccce714610800576101cf565b806323b872dd1461043b57806327dc297e146104a95780632f745c591461056e576101cf565b8063095ea7b3116101ad578063095ea7b31461032a57806316c38b3c1461037857806318160ddd146103a857806322c3b783146103c6576101cf565b806301ffc9a7146101d457806306fdde0314610239578063081812fc146102bc575b600080fd5b61021f600480360360208110156101ea57600080fd5b8101908080357bffffffffffffffffffffffffffffffffffffffffffffffffffffffff191690602001909291905050506111f0565b604051808215151515815260200191505060405180910390f35b610241611258565b6040518080602001828103825283818151815260200191508051906020019080838360005b83811015610281578082015181840152602081019050610266565b50505050905090810190601f1680156102ae5780820380516001836020036101000a031916815260200191505b509250505060405180910390f35b6102e8600480360360208110156102d257600080fd5b81019080803590602001909291905050506112fa565b604051808273ffffffffffffffffffffffffffffffffffffffff1673ffffffffffffffffffffffffffffffffffffffff16815260200191505060405180910390f35b6103766004803603604081101561034057600080fd5b81019080803573ffffffffffffffffffffffffffffffffffffffff16906020019092919080359060200190929190505050611337565b005b6103a66004803603602081101561038e57600080fd5b8101908080351515906020019092919050505061154e565b005b6103b061162f565b6040518082815260200191505060405180910390f35b6103f2600480360360208110156103dc57600080fd5b810190808035906020019092919050505061163c565b604051808381526020018273ffffffffffffffffffffffffffffffffffffffff1673ffffffffffffffffffffffffffffffffffffffff1681526020019250505060405180910390f35b6104a76004803603606081101561045157600080fd5b81019080803573ffffffffffffffffffffffffffffffffffffffff169060200190929190803573ffffffffffffffffffffffffffffffffffffffff16906020019092919080359060200190929190505050611680565b005b61056c600480360360408110156104bf57600080fd5b8101908080359060200190929190803590602001906401000000008111156104e657600080fd5b8201836020820111156104f857600080fd5b8035906020019184600183028401116401000000008311171561051a57600080fd5b91908080601f016020809104026020016040519081016040528093929190818152602001838380828437600081840152601f19601f8201169050808301925050505050505091929192905050506116a5565b005b6105ba6004803603604081101561058457600080fd5b81019080803573ffffffffffffffffffffffffffffffffffffffff169060200190929190803590602001909291905050506116e8565b6040518082815260200191505060405180910390f35b61072a600480360360608110156105e657600080fd5b81019080803590602001909291908035906020019064010000000081111561060d57600080fd5b82018360208201111561061f57600080fd5b8035906020019184600183028401116401000000008311171561064157600080fd5b91908080601f016020809104026020016040519081016040528093929190818152602001838380828437600081840152601f19601f820116905080830192505050505050509192919290803590602001906401000000008111156106a457600080fd5b8201836020820111156106b657600080fd5b803590602001918460018302840111640100000000831117156106d857600080fd5b91908080601f016020809104026020016040519081016040528093929190818152602001838380828437600081840152601f19601f82011690508083019250505050505050919291929050505061175f565b005b6107786004803603604081101561074257600080fd5b81019080803573ffffffffffffffffffffffffffffffffffffffff16906020019092919080359060200190929190505050611764565b604051808215151515815260200191505060405180910390f35b6107fe600480360360608110156107a857600080fd5b81019080803573ffffffffffffffffffffffffffffffffffffffff169060200190929190803573ffffffffffffffffffffffffffffffffffffffff16906020019092919080359060200190929190505050611847565b005b61082c6004803603602081101561081657600080fd5b8101908080359060200190929190505050611867565b6040518082815260200191505060405180910390f35b6109ab600480360361016081101561085957600080fd5b8101908080604001906002806020026040519081016040528092919082600260200280828437600081840152601f19601f82011690508083019250505050505091929192908060800190600280602002604051908101604052809291906000905b8282101561090e578382604002016002806020026040519081016040528092919082600260200280828437600081840152601f19601f820116905080830192505050505050815260200190600101906108ba565b50505050919291929080604001906002806020026040519081016040528092919082600260200280828437600081840152601f19601f820116905080830192505050505050919291929080604001906002806020026040519081016040528092919082600260200280828437600081840152601f19601f82011690508083019250505050505091929192908035906020019092919050505061189f565b005b610b0c60048036036101408110156109c457600080fd5b8101908080604001906002806020026040519081016040528092919082600260200280828437600081840152601f19601f82011690508083019250505050505091929192908060800190600280602002604051908101604052809291906000905b82821015610a79578382604002016002806020026040519081016040528092919082600260200280828437600081840152601f19601f82011690508083019250505050505081526020019060010190610a25565b50505050919291929080604001906002806020026040519081016040528092919082600260200280828437600081840152601f19601f820116905080830192505050505050919291929080604001906002806020026040519081016040528092919082600260200280828437600081840152601f19601f8201169050808301925050505050509192919290505050611b1e565b604051808215151515815260200191505060405180910390f35b610b5260048036036020811015610b3c57600080fd5b8101908080359060200190929190505050611d38565b604051808273ffffffffffffffffffffffffffffffffffffffff1673ffffffffffffffffffffffffffffffffffffffff16815260200191505060405180910390f35b610bd660048036036020811015610baa57600080fd5b81019080803573ffffffffffffffffffffffffffffffffffffffff169060200190929190505050611d75565b6040518082815260200191505060405180910390f35b610bf4611dc5565b604051808273ffffffffffffffffffffffffffffffffffffffff1673ffffffffffffffffffffffffffffffffffffffff16815260200191505060405180910390f35b610c3e611dee565b6040518080602001828103825283818151815260200191508051906020019080838360005b83811015610c7e578082015181840152602081019050610c63565b50505050905090810190601f168015610cab5780820380516001836020036101000a031916815260200191505b509250505060405180910390f35b610d0760048036036040811015610ccf57600080fd5b81019080803573ffffffffffffffffffffffffffffffffffffffff169060200190929190803515159060200190929190505050611e90565b005b610d11611fcc565b604051808215151515815260200191505060405180910390f35b610d5760048036036020811015610d4157600080fd5b8101908080359060200190929190505050611fe2565b604051808381526020018273ffffffffffffffffffffffffffffffffffffffff1673ffffffffffffffffffffffffffffffffffffffff1681526020019250505060405180910390f35b610eff6004803603610140811015610db757600080fd5b8101908080604001906002806020026040519081016040528092919082600260200280828437600081840152601f19601f82011690508083019250505050505091929192908060800190600280602002604051908101604052809291906000905b82821015610e6c578382604002016002806020026040519081016040528092919082600260200280828437600081840152601f19601f82011690508083019250505050505081526020019060010190610e18565b50505050919291929080604001906002806020026040519081016040528092919082600260200280828437600081840152601f19601f820116905080830192505050505050919291929080604001906002806020026040519081016040528092919082600260200280828437600081840152601f19601f8201169050808301925050505050509192919290505050612035565b005b61100460048036036080811015610f1757600080fd5b81019080803573ffffffffffffffffffffffffffffffffffffffff169060200190929190803573ffffffffffffffffffffffffffffffffffffffff1690602001909291908035906020019092919080359060200190640100000000811115610f7e57600080fd5b820183602082011115610f9057600080fd5b80359060200191846001830284011164010000000083111715610fb257600080fd5b91908080601f016020809104026020016040519081016040528093929190818152602001838380828437600081840152601f19601f8201169050808301925050505050505091929192905050506122e5565b005b61100e61230d565b6040518080602001828103825283818151815260200191508051906020019080838360005b8381101561104e578082015181840152602081019050611033565b50505050905090810190601f16801561107b5780820380516001836020036101000a031916815260200191505b509250505060405180910390f35b6110b56004803603602081101561109f57600080fd5b81019080803590602001909291905050506123af565b6040518080602001828103825283818151815260200191508051906020019080838360005b838110156110f55780820151818401526020810190506110da565b50505050905090810190601f1680156111225780820380516001836020036101000a031916815260200191505b509250505060405180910390f35b6111926004803603604081101561114657600080fd5b81019080803573ffffffffffffffffffffffffffffffffffffffff169060200190929190803573ffffffffffffffffffffffffffffffffffffffff169060200190929190505050612478565b604051808215151515815260200191505060405180910390f35b6111ee600480360360208110156111c257600080fd5b81019080803573ffffffffffffffffffffffffffffffffffffffff16906020019092919050505061250c565b005b600060016000837bffffffffffffffffffffffffffffffffffffffffffffffffffffffff19167bffffffffffffffffffffffffffffffffffffffffffffffffffffffff1916815260200190815260200160002060009054906101000a900460ff169050919050565b6060600f8054600181600116156101000203166002900480601f0160208091040260200160405190810160405280929190818152602001828054600181600116156101000203166002900480156112f05780601f106112c5576101008083540402835291602001916112f0565b820191906000526020600020905b8154815290600101906020018083116112d357829003601f168201915b5050505050905090565b60006003600083815260200190815260200160002060009054906101000a900473ffffffffffffffffffffffffffffffffffffffff169050919050565b600061134282611d38565b90508273ffffffffffffffffffffffffffffffffffffffff168173ffffffffffffffffffffffffffffffffffffffff16141515156113e8576040517f08c379a000000000000000000000000000000000000000000000000000000000815260040180806020018281038252601f8152602001807f43616e6e6f74206265206578697374696e6720746f6b656e206f776e65722e0081525060200191505060405180910390fd5b3373ffffffffffffffffffffffffffffffffffffffff168173ffffffffffffffffffffffffffffffffffffffff16148061142857506114278133612478565b5b151561149c576040517f08c379a00000000000000000000000000000000000000000000000000000000081526004018080602001828103825260118152602001807f436f6e646974696f6e206e6f74206d657400000000000000000000000000000081525060200191505060405180910390fd5b826003600084815260200190815260200160002060006101000a81548173ffffffffffffffffffffffffffffffffffffffff021916908373ffffffffffffffffffffffffffffffffffffffff160217905550818373ffffffffffffffffffffffffffffffffffffffff168273ffffffffffffffffffffffffffffffffffffffff167f8c5be1e5ebec7d5bd14f71427d1e84f3dd0314c0f7b2291e5b200ac8c7c3b92560405160405180910390a4505050565b6000809054906101000a900473ffffffffffffffffffffffffffffffffffffffff1673ffffffffffffffffffffffffffffffffffffffff163373ffffffffffffffffffffffffffffffffffffffff16141515611612576040517f08c379a000000000000000000000000000000000000000000000000000000000815260040180806020018281038252601c8152602001807f43616c6c6572206973206e6f7420636f6e7472616374206f776e65720000000081525060200191505060405180910390fd5b80600060146101000a81548160ff02191690831515021790555050565b6000600880549050905090565b60156020528060005260406000206000915090508060000154908060010160009054906101000a900473ffffffffffffffffffffffffffffffffffffffff16905082565b61168a338261271f565b151561169557600080fd5b6116a08383836127b4565b505050565b6116e4828260006040519080825280601f01601f1916602001820160405280156116de5781602001600182028038833980820191505090505b5061175f565b5050565b60006116f383611d75565b8210151561170057600080fd5b600660008473ffffffffffffffffffffffffffffffffffffffff1673ffffffffffffffffffffffffffffffffffffffff1681526020019081526020016000208281548110151561174c57fe5b9060005260206000200154905092915050565b505050565b60008060009054906101000a900473ffffffffffffffffffffffffffffffffffffffff1673ffffffffffffffffffffffffffffffffffffffff163373ffffffffffffffffffffffffffffffffffffffff1614151561182a576040517f08c379a000000000000000000000000000000000000000000000000000000000815260040180806020018281038252601c8152602001807f43616c6c6572206973206e6f7420636f6e7472616374206f776e65720000000081525060200191505060405180910390fd5b61183483836127d8565b61183d826127f9565b6001905092915050565b611862838383604051806020016040528060008152506122e5565b505050565b600061187161162f565b8210151561187e57600080fd5b60088281548110151561188d57fe5b90600052602060002001549050919050565b6000858585856040516020018085600260200280838360005b838110156118d35780820151818401526020810190506118b8565b505050509050018460026000925b818410156119275782846020020151600260200280838360005b838110156119165780820151818401526020810190506118fb565b5050505090500192600101926118e1565b9250505083600260200280838360005b83811015611952578082015181840152602081019050611937565b5050505090500182600260200280838360005b83811015611980578082015181840152602081019050611965565b50505050905001945050505050604051602081830303815290604052805190602001209050600073ffffffffffffffffffffffffffffffffffffffff166015600083815260200190815260200160002060010160009054906101000a900473ffffffffffffffffffffffffffffffffffffffff1673ffffffffffffffffffffffffffffffffffffffff16141515611a7f576040517f08c379a000000000000000000000000000000000000000000000000000000000815260040180806020018281038252601e8152602001807f54686520736f6c7574696f6e20616c7265616479207375626d6974746564000081525060200191505060405180910390fd5b611a8b86868686611b1e565b1515611aff576040517f08c379a00000000000000000000000000000000000000000000000000000000081526004018080602001828103825260198152602001807f54686520736f6c7574696f6e206973206e6f742076616c69640000000000000081525060200191505060405180910390fd5b611b0b86868686612035565b611b153383611764565b50505050505050565b6000611b28614542565b6040518060400160405280876000600281101515611b4257fe5b60200201518152602001876001600281101515611b5b57fe5b6020020151815250816000018190525060405180604001604052806040518060400160405280886000600281101515611b9057fe5b60200201516000600281101515611ba357fe5b60200201518152602001886000600281101515611bbc57fe5b60200201516001600281101515611bcf57fe5b602002015181525081526020016040518060400160405280886001600281101515611bf657fe5b60200201516000600281101515611c0957fe5b60200201518152602001886001600281101515611c2257fe5b60200201516001600281101515611c3557fe5b602002015181525081525081602001819052506040518060400160405280856000600281101515611c6257fe5b60200201518152602001856001600281101515611c7b57fe5b6020020151815250816040018190525060606002604051908082528060200260200182016040528015611cbd5781602001602082028038833980820191505090505b50905060008090505b6002811015611d0b578481600281101515611cdd57fe5b60200201518282815181101515611cf057fe5b90602001906020020181815250508080600101915050611cc6565b506000611d18828461294c565b1415611d2957600192505050611d30565b6000925050505b949350505050565b60006002600083815260200190815260200160002060009054906101000a900473ffffffffffffffffffffffffffffffffffffffff169050919050565b6000611dbe600460008473ffffffffffffffffffffffffffffffffffffffff1673ffffffffffffffffffffffffffffffffffffffff168152602001908152602001600020612ad4565b9050919050565b60008060009054906101000a900473ffffffffffffffffffffffffffffffffffffffff16905090565b606060108054600181600116156101000203166002900480601f016020809104026020016040519081016040528092919081815260200182805460018160011615610100020316600290048015611e865780601f10611e5b57610100808354040283529160200191611e86565b820191906000526020600020905b815481529060010190602001808311611e6957829003601f168201915b5050505050905090565b3373ffffffffffffffffffffffffffffffffffffffff168273ffffffffffffffffffffffffffffffffffffffff1614151515611ecb57600080fd5b80600560003373ffffffffffffffffffffffffffffffffffffffff1673ffffffffffffffffffffffffffffffffffffffff16815260200190815260200160002060008473ffffffffffffffffffffffffffffffffffffffff1673ffffffffffffffffffffffffffffffffffffffff16815260200190815260200160002060006101000a81548160ff0219169083151502179055508173ffffffffffffffffffffffffffffffffffffffff163373ffffffffffffffffffffffffffffffffffffffff167f17307eab39ab6107e8899845ad3d59bd9653f200f220920489ca2b5937696c3183604051808215151515815260200191505060405180910390a35050565b60008060149054906101000a900460ff16905090565b601481815481101515611ff157fe5b90600052602060002090600202016000915090508060000154908060010160009054906101000a900473ffffffffffffffffffffffffffffffffffffffff16905082565b61203d614576565b6040518060400160405280601360008154809291906001019190505581526020013373ffffffffffffffffffffffffffffffffffffffff1681525090506000858585856040516020018085600260200280838360005b838110156120ae578082015181840152602081019050612093565b505050509050018460026000925b818410156121025782846020020151600260200280838360005b838110156120f15780820151818401526020810190506120d6565b5050505090500192600101926120bc565b9250505083600260200280838360005b8381101561212d578082015181840152602081019050612112565b5050505090500182600260200280838360005b8381101561215b578082015181840152602081019050612140565b5050505090500194505050505060405160208183030381529060405280519060200120905081601560008381526020019081526020016000206000820151816000015560208201518160010160006101000a81548173ffffffffffffffffffffffffffffffffffffffff021916908373ffffffffffffffffffffffffffffffffffffffff160217905550905050601482908060018154018082558091505090600182039060005260206000209060020201600090919290919091506000820151816000015560208201518160010160006101000a81548173ffffffffffffffffffffffffffffffffffffffff021916908373ffffffffffffffffffffffffffffffffffffffff1602179055505050507f078793128cefb19aac38a33f9e5df39f67716907f6d747e8065545699e0b2b8d82600001518360200151604051808381526020018273ffffffffffffffffffffffffffffffffffffffff1673ffffffffffffffffffffffffffffffffffffffff1681526020019250505060405180910390a1505050505050565b6122f0848484611680565b6122fc84848484612ae2565b151561230757600080fd5b50505050565b606060118054600181600116156101000203166002900480601f0160208091040260200160405190810160405280929190818152602001828054600181600116156101000203166002900480156123a55780601f1061237a576101008083540402835291602001916123a5565b820191906000526020600020905b81548152906001019060200180831161238857829003601f168201915b5050505050905090565b60606123ba82612ccd565b15156123c557600080fd5b601260008381526020019081526020016000208054600181600116156101000203166002900480601f01602080910402602001604051908101604052809291908181526020018280546001816001161561010002031660029004801561246c5780601f106124415761010080835404028352916020019161246c565b820191906000526020600020905b81548152906001019060200180831161244f57829003601f168201915b50505050509050919050565b6000600560008473ffffffffffffffffffffffffffffffffffffffff1673ffffffffffffffffffffffffffffffffffffffff16815260200190815260200160002060008373ffffffffffffffffffffffffffffffffffffffff1673ffffffffffffffffffffffffffffffffffffffff16815260200190815260200160002060009054906101000a900460ff16905092915050565b6000809054906101000a900473ffffffffffffffffffffffffffffffffffffffff1673ffffffffffffffffffffffffffffffffffffffff163373ffffffffffffffffffffffffffffffffffffffff161415156125d0576040517f08c379a000000000000000000000000000000000000000000000000000000000815260040180806020018281038252601c8152602001807f43616c6c6572206973206e6f7420636f6e7472616374206f776e65720000000081525060200191505060405180910390fd5b600073ffffffffffffffffffffffffffffffffffffffff168173ffffffffffffffffffffffffffffffffffffffff1614151515612658576040517f08c379a000000000000000000000000000000000000000000000000000000000815260040180806020018281038252604c8152602001806147a2604c913960600191505060405180910390fd5b806000806101000a81548173ffffffffffffffffffffffffffffffffffffffff021916908373ffffffffffffffffffffffffffffffffffffffff1602179055507fa6f9dae13f6f9f7de69814715796059e291f78e951670d244dd3b07111b8bb186000809054906101000a900473ffffffffffffffffffffffffffffffffffffffff16604051808273ffffffffffffffffffffffffffffffffffffffff1673ffffffffffffffffffffffffffffffffffffffff16815260200191505060405180910390a150565b60008061272b83611d38565b90508073ffffffffffffffffffffffffffffffffffffffff168473ffffffffffffffffffffffffffffffffffffffff16148061279a57508373ffffffffffffffffffffffffffffffffffffffff16612782846112fa565b73ffffffffffffffffffffffffffffffffffffffff16145b806127ab57506127aa8185612478565b5b91505092915050565b6127bf838383612d3f565b6127c98382613022565b6127d382826131c6565b505050565b6127e2828261328d565b6127ec82826131c6565b6127f5816134a8565b5050565b61280281612ccd565b1515612876576040517f08c379a00000000000000000000000000000000000000000000000000000000081526004018080602001828103825260198152602001807f54686520746f6b656e20646f6573206e6f742065786973742e0000000000000081525060200191505060405180910390fd5b61292260118054600181600116156101000203166002900480601f01602080910402602001604051908101604052809291908181526020018280546001816001161561010002031660029004801561290f5780601f106128e45761010080835404028352916020019161290f565b820191906000526020600020905b8154815290600101906020018083116128f257829003601f168201915b505050505061291d836134f4565b61362e565b6012600083815260200190815260200160002090805190602001906129489291906145a6565b5050565b6000807f30644e72e131a029b85045b68181585d2833e84879b9709143e1f593f0000001905061297a614626565b612982613672565b9050806080015151600186510114151561299b57600080fd5b6129a361466e565b6040518060400160405280600081526020016000815250905060008090505b8651811015612a47578387828151811015156129da57fe5b906020019060200201511015156129f057600080fd5b612a3882612a33856080015160018501815181101515612a0c57fe5b906020019060200201518a85815181101515612a2457fe5b90602001906020020151613acc565b613b66565b915080806001019150506129c2565b50612a6e8183608001516000815181101515612a5f57fe5b90602001906020020151613b66565b9050612ab485600001518660200151612a8684613c21565b8560400151612a988a60400151613c21565b8760600151612aaa8960000151613c21565b8960200151613cbd565b1515612ac65760019350505050612ace565b600093505050505b92915050565b600081600001549050919050565b6000612b038473ffffffffffffffffffffffffffffffffffffffff16613e41565b1515612b125760019050612cc5565b60008473ffffffffffffffffffffffffffffffffffffffff1663150b7a02338887876040518563ffffffff1660e01b8152600401808573ffffffffffffffffffffffffffffffffffffffff1673ffffffffffffffffffffffffffffffffffffffff1681526020018473ffffffffffffffffffffffffffffffffffffffff1673ffffffffffffffffffffffffffffffffffffffff16815260200183815260200180602001828103825283818151815260200191508051906020019080838360005b83811015612bed578082015181840152602081019050612bd2565b50505050905090810190601f168015612c1a5780820380516001836020036101000a031916815260200191505b5095505050505050602060405180830381600087803b158015612c3c57600080fd5b505af1158015612c50573d6000803e3d6000fd5b505050506040513d6020811015612c6657600080fd5b8101908080519060200190929190505050905063150b7a0260e01b7bffffffffffffffffffffffffffffffffffffffffffffffffffffffff1916817bffffffffffffffffffffffffffffffffffffffffffffffffffffffff1916149150505b949350505050565b6000806002600084815260200190815260200160002060009054906101000a900473ffffffffffffffffffffffffffffffffffffffff169050600073ffffffffffffffffffffffffffffffffffffffff168173ffffffffffffffffffffffffffffffffffffffff161415915050919050565b8273ffffffffffffffffffffffffffffffffffffffff16612d5f82611d38565b73ffffffffffffffffffffffffffffffffffffffff16141515612dea576040517f08c379a000000000000000000000000000000000000000000000000000000000815260040180806020018281038252601a8152602001807f6e6f7420746865206f776e6572206f662074686520746f6b656e00000000000081525060200191505060405180910390fd5b600073ffffffffffffffffffffffffffffffffffffffff168273ffffffffffffffffffffffffffffffffffffffff1614151515612e8f576040517f08c379a00000000000000000000000000000000000000000000000000000000081526004018080602001828103825260138152602001807f6e6f7420612076616c696420616464726573730000000000000000000000000081525060200191505060405180910390fd5b60006003600083815260200190815260200160002060006101000a81548173ffffffffffffffffffffffffffffffffffffffff021916908373ffffffffffffffffffffffffffffffffffffffff160217905550612f29600460008573ffffffffffffffffffffffffffffffffffffffff1673ffffffffffffffffffffffffffffffffffffffff168152602001908152602001600020613e8c565b612f70600460008473ffffffffffffffffffffffffffffffffffffffff1673ffffffffffffffffffffffffffffffffffffffff168152602001908152602001600020613eaf565b816002600083815260200190815260200160002060006101000a81548173ffffffffffffffffffffffffffffffffffffffff021916908373ffffffffffffffffffffffffffffffffffffffff160217905550808273ffffffffffffffffffffffffffffffffffffffff168473ffffffffffffffffffffffffffffffffffffffff167fddf252ad1be2c89b69c2b068fc378daa952ba7f163c4a11628f55a4df523b3ef60405160405180910390a4505050565b600061307a6001600660008673ffffffffffffffffffffffffffffffffffffffff1673ffffffffffffffffffffffffffffffffffffffff16815260200190815260200160002080549050613ec590919063ffffffff16565b9050600060076000848152602001908152602001600020549050818114151561316d576000600660008673ffffffffffffffffffffffffffffffffffffffff1673ffffffffffffffffffffffffffffffffffffffff168152602001908152602001600020838154811015156130eb57fe5b9060005260206000200154905080600660008773ffffffffffffffffffffffffffffffffffffffff1673ffffffffffffffffffffffffffffffffffffffff1681526020019081526020016000208381548110151561314557fe5b9060005260206000200181905550816007600083815260200190815260200160002081905550505b600660008573ffffffffffffffffffffffffffffffffffffffff1673ffffffffffffffffffffffffffffffffffffffff1681526020019081526020016000208054809190600190036131bf9190614688565b5050505050565b600660008373ffffffffffffffffffffffffffffffffffffffff1673ffffffffffffffffffffffffffffffffffffffff168152602001908152602001600020805490506007600083815260200190815260200160002081905550600660008373ffffffffffffffffffffffffffffffffffffffff1673ffffffffffffffffffffffffffffffffffffffff1681526020019081526020016000208190806001815401808255809150509060018203906000526020600020016000909192909190915055505050565b61329681612ccd565b15151561330b576040517f08c379a00000000000000000000000000000000000000000000000000000000081526004018080602001828103825260198152602001807f5468697320746f6b656e20616c7265616479206578697374730000000000000081525060200191505060405180910390fd5b600073ffffffffffffffffffffffffffffffffffffffff168273ffffffffffffffffffffffffffffffffffffffff16141515156133b0576040517f08c379a00000000000000000000000000000000000000000000000000000000081526004018080602001828103825260148152602001807f61646472657373206973206e6f742076616c696400000000000000000000000081525060200191505060405180910390fd5b816002600083815260200190815260200160002060006101000a81548173ffffffffffffffffffffffffffffffffffffffff021916908373ffffffffffffffffffffffffffffffffffffffff160217905550613449600460008473ffffffffffffffffffffffffffffffffffffffff1673ffffffffffffffffffffffffffffffffffffffff168152602001908152602001600020613eaf565b808273ffffffffffffffffffffffffffffffffffffffff163373ffffffffffffffffffffffffffffffffffffffff167fddf252ad1be2c89b69c2b068fc378daa952ba7f163c4a11628f55a4df523b3ef60405160405180910390a45050565b6008805490506009600083815260200190815260200160002081905550600881908060018154018082558091505090600182039060005260206000200160009091929091909150555050565b6060600082141561353c576040518060400160405280600181526020017f30000000000000000000000000000000000000000000000000000000000000008152509050613629565b600082905060005b60008214151561356a578080600101915050600a8281151561356257fe5b049150613544565b6060816040519080825280601f01601f19166020018201604052801561359f5781602001600182028038833980820191505090505b50905060006001830390505b60008614151561362157600a868115156135c157fe5b0660300160f81b8282806001900393508151811015156135dd57fe5b9060200101907effffffffffffffffffffffffffffffffffffffffffffffffffffffffffffff1916908160001a905350600a8681151561361957fe5b0495506135ab565b819450505050505b919050565b606061366a8383604051806020016040528060008152506040518060200160405280600081525060405180602001604052806000815250613f0f565b905092915050565b61367a614626565b60405180604001604052807f0c05e627483300726ac18ab32acbd861b71d81dd800a7428353c3789e72e013181526020017f2d4b718424dfe693593df0632368049acff2335e28c92c7cf7f67ac4228bcd218152508160000181905250604051806040016040528060405180604001604052807f26e90620c64f092ac37407d31ea627951b5f8b58d8fbcd1ef6b6ad55299915e681526020017f0e640caa45fabcdd617dcd2c115d5d8e9e2c419bbefe639a6d90f866aab8d124815250815260200160405180604001604052807f26494a311f7df82348e177ca4f402cdf97d8f14bbbd1815baba03f479243a23e81526020017f1fc9106057e074c40db3e0727d04027dfe2143356515d5ffef75ed1b9a1a49a48152508152508160200181905250604051806040016040528060405180604001604052807f2b7179d5d74f1056b1115716964776fb715be346eb2540f0a449950ddd8ed53d81526020017f2fa5c42447d12c6369ab01fa438453c4882ea004a3510389a7f98fb15173aedf815250815260200160405180604001604052807f1ecaa450de776d1c68968ef099fd33e79fb9aff0d63a647c602e19a4d1ec98f781526020017f2e755cd11eae3a89922f7dd2b53288376455bd965429509e7ddc395502eb4b708152508152508160400181905250604051806040016040528060405180604001604052807f17cfed0815b57efdc79f72572e2687c7ec6b7287a05241cc23471b5b03dcb4a981526020017f203a14a53443f23cc5dad84a8467634fc717b2109d99f458f59de9b22adc64b4815250815260200160405180604001604052807f1d17cfcb3750e900708bbc467112de6f282d3b4ac71b7c13429d7c1aa2990bce81526020017f0c8266c0d9349a11d2ef7a50ca56572dafd6c60849f9dbe5b8c08a5a1f22597a8152508152508160600181905250600360405190808252806020026020018201604052801561396157816020015b61394e6146b4565b8152602001906001900390816139465790505b50816080018190525060405180604001604052807f2ae16f8f5364aaa78c8137817905761b2c6719a5b59a359b8f519a2d0a3e299981526020017f14f6c41d17002fb0ceca7ad2596a666e4bdd680c6b54b06bbc775c1a76369429815250816080015160008151811015156139d257fe5b9060200190602002018190525060405180604001604052807f2dccf5167c709599ff84d9cb3e3a6da90fd67768b41871318013426a0586f10d81526020017f0ba0dd60fa2d0f5fe41db541504113b7a955c1a57cf36f845a34def1386af98681525081608001516001815181101515613a4757fe5b9060200190602002018190525060405180604001604052807f01c26eaa279573c41c82801ef9a7ae929b74c8ad051a9b50adf09abfb7c5f6eb81526020017f0a2afc1ef27cd287091d6f1001d250922aea33c491ee4b1ff363ae89aca74b1981525081608001516002815181101515613abc57fe5b9060200190602002018190525090565b613ad461466e565b613adc6146ce565b8360000151816000600381101515613af057fe5b6020020181815250508360200151816001600381101515613b0d57fe5b60200201818152505082816002600381101515613b2657fe5b602002018181525050600060608360808460076107d05a03fa90508060008114613b4f57613b51565bfe5b50801515613b5e57600080fd5b505092915050565b613b6e61466e565b613b766146f0565b8360000151816000600481101515613b8a57fe5b6020020181815250508360200151816001600481101515613ba757fe5b6020020181815250508260000151816002600481101515613bc457fe5b6020020181815250508260200151816003600481101515613be157fe5b602002018181525050600060608360c08460066107d05a03fa90508060008114613c0a57613c0c565bfe5b50801515613c1957600080fd5b505092915050565b613c2961466e565b60007f30644e72e131a029b85045b68181585d97816a916871ca8d3c208c16d87cfd47905060008360000151148015613c66575060008360200151145b15613c8a576040518060400160405280600081526020016000815250915050613cb8565b604051806040016040528084600001518152602001828560200151811515613cae57fe5b0683038152509150505b919050565b600060606004604051908082528060200260200182016040528015613cfc57816020015b613ce96146b4565b815260200190600190039081613ce15790505b50905060606004604051908082528060200260200182016040528015613d3c57816020015b613d29614712565b815260200190600190039081613d215790505b5090508a826000815181101515613d4f57fe5b9060200190602002018190525088826001815181101515613d6c57fe5b9060200190602002018190525086826002815181101515613d8957fe5b9060200190602002018190525084826003815181101515613da657fe5b9060200190602002018190525089816000815181101515613dc357fe5b9060200190602002018190525087816001815181101515613de057fe5b9060200190602002018190525085816002815181101515613dfd57fe5b9060200190602002018190525083816003815181101515613e1a57fe5b90602001906020020181905250613e3182826141ef565b9250505098975050505050505050565b60008060007fc5d2460186f7233c927e7db2dcc703c0e500b653ca82273b7bfad8045d85a47060001b9050833f9150808214158015613e8357506000801b8214155b92505050919050565b613ea460018260000154613ec590919063ffffffff16565b816000018190555050565b6001816000016000828254019250508190555050565b6000613f0783836040518060400160405280601e81526020017f536166654d6174683a207375627472616374696f6e206f766572666c6f770000815250614480565b905092915050565b6060808690506060869050606086905060608690506060869050606081518351855187518951010101016040519080825280601f01601f191660200182016040528015613f6b5781602001600182028038833980820191505090505b509050606081905060008090506000809050600090505b8851811015613ff6578881815181101515613f9957fe5b90602001015160f81c60f81b8383806001019450815181101515613fb957fe5b9060200101907effffffffffffffffffffffffffffffffffffffffffffffffffffffffffffff1916908160001a9053508080600101915050613f82565b600090505b875181101561406f57878181518110151561401257fe5b90602001015160f81c60f81b838380600101945081518110151561403257fe5b9060200101907effffffffffffffffffffffffffffffffffffffffffffffffffffffffffffff1916908160001a9053508080600101915050613ffb565b600090505b86518110156140e857868181518110151561408b57fe5b90602001015160f81c60f81b83838060010194508151811015156140ab57fe5b9060200101907effffffffffffffffffffffffffffffffffffffffffffffffffffffffffffff1916908160001a9053508080600101915050614074565b600090505b855181101561416157858181518110151561410457fe5b90602001015160f81c60f81b838380600101945081518110151561412457fe5b9060200101907effffffffffffffffffffffffffffffffffffffffffffffffffffffffffffff1916908160001a90535080806001019150506140ed565b600090505b84518110156141da57848181518110151561417d57fe5b90602001015160f81c60f81b838380600101945081518110151561419d57fe5b9060200101907effffffffffffffffffffffffffffffffffffffffffffffffffffffffffffff1916908160001a9053508080600101915050614166565b82995050505050505050505095945050505050565b60008151835114151561420157600080fd5b60008351905060006006820290506060816040519080825280602002602001820160405280156142405781602001602082028038833980820191505090505b50905060008090505b8381101561441e57868181518110151561425f57fe5b9060200190602002015160000151826000600684020181518110151561428157fe5b9060200190602002018181525050868181518110151561429d57fe5b906020019060200201516020015182600160068402018151811015156142bf57fe5b906020019060200201818152505085818151811015156142db57fe5b906020019060200201516000015160016002811015156142f757fe5b6020020151826002600684020181518110151561431057fe5b9060200190602002018181525050858181518110151561432c57fe5b9060200190602002015160000151600060028110151561434857fe5b6020020151826003600684020181518110151561436157fe5b9060200190602002018181525050858181518110151561437d57fe5b9060200190602002015160200151600160028110151561439957fe5b602002015182600460068402018151811015156143b257fe5b906020019060200201818152505085818151811015156143ce57fe5b906020019060200201516020015160006002811015156143ea57fe5b6020020151826005600684020181518110151561440357fe5b90602001906020020181815250508080600101915050614249565b50614427614738565b6000602082602086026020860160086107d05a03fa9050806000811461444c5761444e565bfe5b5080151561445b57600080fd5b600082600060018110151561446c57fe5b602002015114159550505050505092915050565b6000838311158290151561452f576040517f08c379a00000000000000000000000000000000000000000000000000000000081526004018080602001828103825283818151815260200191508051906020019080838360005b838110156144f45780820151818401526020810190506144d9565b50505050905090810190601f1680156145215780820380516001836020036101000a031916815260200191505b509250505060405180910390fd5b5060008385039050809150509392505050565b6040518061010001604052806145566146b4565b8152602001614563614712565b81526020016145706146b4565b81525090565b604051806040016040528060008152602001600073ffffffffffffffffffffffffffffffffffffffff1681525090565b828054600181600116156101000203166002900490600052602060002090601f016020900481019282601f106145e757805160ff1916838001178555614615565b82800160010185558215614615579182015b828111156146145782518255916020019190600101906145f9565b5b509050614622919061475a565b5090565b604051806101e0016040528061463a6146b4565b8152602001614647614712565b8152602001614654614712565b8152602001614661614712565b8152602001606081525090565b604051806040016040528060008152602001600081525090565b8154818355818111156146af578183600052602060002091820191016146ae919061475a565b5b505050565b604051806040016040528060008152602001600081525090565b6040518060600160405280600390602082028038833980820191505090505090565b6040518060800160405280600490602082028038833980820191505090505090565b604051806080016040528061472561477f565b815260200161473261477f565b81525090565b6040518060200160405280600190602082028038833980820191505090505090565b61477c91905b80821115614778576000816000905550600101614760565b5090565b90565b604051806040016040528060029060208202803883398082019150509050509056fe54686520676976656e2061646472657373206973206120636f6e7472616374206164647265737320616e642069742073686f756c6420626520616e206163636f756e7420616464726573732ea165627a7a7230582081b9fb6719696169cf300b6d9c11d37f6def0baaa54bd2043a67cb94b47ae477002968747470733a2f2f73332d75732d776573742d322e616d617a6f6e6177732e636f6d2f756461636974792d626c6f636b636861696e2f63617073746f6e652f",
  "source": "pragma solidity ^0.5.5;\n\n// TODO define a contract call to the zokrates generated solidity contract <Verifier> or <renamedVerifier>\nimport './../../zokrates/code/square/verifier.sol';\nimport './ERC721Mintable.sol';\n\n// TODO define another contract named SolnSquareVerifier that inherits from your ERC721Mintable class\ncontract SolnSquareVerifier is DimejiERC721Token, Verifier{\n\n\n// TODO define a solutions struct that can hold an index & an address\n  struct Solution {\n        uint index;\n        address senderAddress;\n    }\n        uint256 solutionCounter = 0;\n// TODO define an array of the above struct\n    Solution[] public solutions;\n\n// TODO define a mapping to store unique solutions submitted\n    mapping(bytes32 => Solution) public Solutionssubmitted;\n\n\n// TODO Create an event to emit when a solution is added\n    event SolutionAdded(uint Solindex, address Solsender);\n\n\n// TODO Create a function to add the solutions to the array and emit the event\n function add(uint256[2] memory a, uint256[2][2] memory b, uint256[2] memory c, uint256[2] memory input) public {\n        Solution memory latestSolution = Solution({\n                index: solutionCounter++,\n                senderAddress: msg.sender\n            });\n            \n        bytes32 key = keccak256(abi.encodePacked(a, b, c, input));\n        Solutionssubmitted[key] = latestSolution;\n        solutions.push(latestSolution);\n        \n        emit SolutionAdded(latestSolution.index, latestSolution.senderAddress);\n    }\n\n\n// TODO Create a function to mint new NFT only after the solution has been verified\n//  - make sure the solution is unique (has not been used before)\n//  - make sure you handle metadata as well as tokenSuplly\n function mintVerified(uint256[2] memory a, uint256[2][2] memory b, uint256[2] memory c, uint256[2] memory input, uint256 tokenId) public {\n        bytes32 key = keccak256(abi.encodePacked(a, b, c, input));\n        require(Solutionssubmitted[key].senderAddress == address(0), 'The solution already submitted');\n        require(verifyTx(a, b, c, input), 'The solution is not valid');\n        add(a, b, c, input);\n        super.mint(msg.sender, tokenId);\n    }\n}\n  \n\n\n\n\n\n\n\n\n\n\n\n\n\n\n\n\n\n\n\n\n\n\n\n\n\n\n",
  "sourcePath": "/Users/mac/Desktop/Real-Estate-marketplace/eth-contracts/contracts/SolnSquareVerifier.sol",
  "compiler": {
    "name": "solc",
    "version": "0.5.5+commit.47a71e8f.Emscripten.clang"
  },
  "schemaVersion": "3.4.1",
  "updatedAt": "2021-07-14T22:35:27.268Z",
  "networkType": "ethereum",
  "devdoc": {
    "methods": {
      "isApprovedForAll(address,address)": {
        "details": "Tells whether an operator is approved by a given owner",
        "params": {
          "operator": "operator address which you want to query the approval of",
          "owner": "owner address which you want to query the approval of"
        },
        "return": "bool whether the given operator is approved by the given owner"
      },
      "setApprovalForAll(address,bool)": {
        "details": "Sets or unsets the approval of a given operator An operator is allowed to transfer all tokens of the sender on their behalf",
        "params": {
          "approved": "representing the status of the approval to be set",
          "to": "operator address to set the approval"
        }
      },
      "supportsInterface(bytes4)": {
        "details": "implement supportsInterface(bytes4) using a lookup table"
      },
      "tokenByIndex(uint256)": {
        "details": "Gets the token ID at a given index of all the tokens in this contract Reverts if the index is greater or equal to the total number of tokens",
        "params": {
          "index": "uint256 representing the index to be accessed of the tokens list"
        },
        "return": "uint256 token ID at the given index of the tokens list"
      },
      "tokenOfOwnerByIndex(address,uint256)": {
        "details": "Gets the token ID at a given index of the tokens list of the requested owner",
        "params": {
          "index": "uint256 representing the index to be accessed of the requested tokens list",
          "owner": "address owning the tokens list to be accessed"
        },
        "return": "uint256 token ID at the given index of the tokens list owned by the requested address"
      },
      "totalSupply()": {
        "details": "Gets the total amount of tokens stored by the contract",
        "return": "uint256 representing the total amount of tokens"
      }
    }
  },
  "userdoc": {
    "methods": {}
  }
}